:020000000115E8
:02000300017B7F
:1000130001D3758170C288C28AD2A8D2AAD2AFE4B2
:10002300F8F9FAFBFCFDFEFF7590CE312075906E5A
:1000330031127590EE311275906E31127590EE316A
:100043001275906E31127590EE311275906E310308
:100053007590B331207590B731127590B531127523
:1000630090B731127590B531127590B73112759002
:10007300B531127590B7012B7590CE310375906E23
:1000830031127590EE311275906E31127590EE311A
:100093001275906E31127590EE311275906E3103B8
:1000A3007590B331037590B731127590B5311275F0
:1000B30090B731127590B531127590B731127590B2
:1000C300B531127590B731037590CE3103C28932C1
:1000D3007590B331037590B731127590B5311275C0
:1000E30090B731127590B531127590B73112759082
:1000F300B531127590B731037590CE3103C28B328F
:10010300795A7A5A000000000000DAF8D9F422790B
:10011300347A340000000000DAF9D9F52278057941
:0F012300AE7AAE0000000000DAF9D9F5D8F1226B
:00000001FF